:100000000C9434000C9451000C9451000C94510049
:100010000C946C070C9451000C9448070C945100FC
:100020000C9451000C9451000C9451000C9451000C
:100030000C9451000C94BD060C9451000C9451008A
:100040000C94F7060C9451000C9493060C945100F8
:100050000C9451000C9451000C9451000C945100DC
:100060000C9451000C94510011241FBECFEFD4E02A
:10007000DEBFCDBF12E0A0E0B1E0EAEFFDE102C0DB
:1000800005900D92AC34B107D9F723E0ACE4B2E0AF
:1000900001C01D92A13CB207E1F70E943E070C94FB
:1000A000FB0E0C9400002A98E0910A01F0910B01DC
:1000B0008FEF0995E0910A01F0910B018FEF0995FF
:1000C000E0910A01F0910B018FEF0995E0910A018F
:1000D000F0910B018FEF099589E993E00197F1F712
:1000E00000C00895CF93DF938091BB028B7599F088
:1000F000E0910601F0910701099590E0A0E0B0E0E1
:10010000DC01992788278093C0029093C102A093B5
:10011000C202B093C302E0910601F0910701099574
:10012000C9EBD2E04F81588569857A85582B4F837A
:10013000588769877A87E0910601F0910701099550
:100140004F81588569857A85482B4F835887698701
:100150007A87DF91CF910895E1ECF0E080818068AB
:100160008083EFE6F0E0808181608083EEE6F0E05E
:100170008081816080830895CF93DF93E0910401B3
:10018000F091050180818F7B8083E0910401F091E3
:1001900005018081877C886080830E94AC002A985A
:1001A000C9EBD2E0E0910A01F0910B018881099539
:1001B000E0910801F09109018B819C8109950E94D1
:1001C000AC00DF91CF910895E1ECF0E080818F7772
:1001D0008083EEE6F0E080818E7F8083EFE6F0E0C2
:1001E00080818E7F80830895CF93DF93E091040117
:1001F000F0910501808180648083E0910401F09199
:1002000005018081877C806280830E94E4002A98B7
:10021000E0910A01F0910B018091B90209951C99B6
:10022000FECFE0910601F09107010995C9EBD2E0FC
:100230008A830E94AC008A81DF91CF910895CF928A
:10024000DF92EF92FF92CF930E94E400E0910A01C7
:10025000F0910B018091B90209951C99FECF809114
:10026000BB028B7569F0E0910601F09107010995D9
:10027000C82ED12CE12CF12C7601DD24CC2403C036
:10028000C12CD12C7601E0910601F091070109956E
:10029000C82FE0910601F09107010995C82ADC2AD0
:1002A0000E94AC00C701B601CF91FF90EF90DF90A4
:1002B000CF900895CF93DF93E0910401F091050171
:1002C000808180648083E0910401F0910501808148
:1002D000877C886080830E94E4002A98E0910A016C
:1002E000F0910B018091B90209951C99FECFE09124
:1002F0000601F09107010995C9EBD2E01B828C83BE
:10030000E0910601F091070109952B813C81282B92
:100310003C832B830E94AC008B819C81DF91CF9129
:100320000895CF93DF93E0910401F091050180815E
:1003300080648083E0910401F09105018081877CD5
:10034000806180830E94E4002A98E0910A01F09184
:100350000B018091B90209951C99FECFE09106012D
:10036000F09107010995C9EBD2E01D828E83E091DF
:100370000601F091070109952D813E81282B3E83CE
:100380002D830E94AC008D819E81DF91CF910895D5
:10039000CF93DF93E0910401F091050180818F7B81
:1003A0008083E0910401F09105018081877C806168
:1003B00080830E94E4002A98C9EBD2E0E0910A0110
:1003C000F0910B0188810995E0910801F0910901F4
:1003D0008D819E8109950E94AC00DF91CF91089597
:1003E000CF93C82FE0910201F091030167708081E3
:1003F000887F682B60830E94C801E0910001F09122
:1004000001019C2F9295990F907E81818F71892B8C
:100410008183299A81E38A95F1F700000E94BC004C
:100420001C99FECF2998E0910401F091050180818B
:10043000806480832A98CD7FC43099F4E0910401D0
:10044000F09105018081877C806380830E941F0179
:100450006093C4027093C5028093C6029093C70252
:1004600011C0E0910401F0910501808188638083CF
:100470000E941F016093C8027093C9028093CA0250
:100480009093CB02CF910895E0910C01F0910D0172
:1004900009952A9A219A0E9453000E945A010E94AB
:1004A00091010E94F400E0910201F0910301818129
:1004B00080618183E0910201F091030181818F7D50
:1004C0008183E0919701F09198018081803110F053
:1004D0008FE08083A0919701B0919801ECEBF2E05E
:1004E0008C91982F9F708081807F892B80830E94C0
:1004F000BC000E94C80160E084E00E94F00166E058
:1005000084E00E94F0010895CF93DF93C82F299AC9
:1005100081E38A95F1F700000E94E400E091020176
:10052000F0910301C7708081887FC82BC0832A980F
:10053000E0910001F091010181818F7180628183DE
:100540000E94C8010E94BC001C99FECFE0910401EA
:10055000F0910501808180648083E0910401F09135
:1005600005018081877C88618083C9EBD2E0E091BE
:100570000A01F0910B01888109950E9472000E9486
:10058000AC0029986F81788589859A85DF91CF9114
:100590000895CF92DF92FF920F931F93CF93DF9333
:1005A000C82FE9EBF2E005811681C380D4800E9458
:1005B000E400E0910201F09103018C2F877090819B
:1005C000987FF92EF82AF0822A98E0910201F091A2
:1005D000030181818F7E8183E0910001F09101010F
:1005E00081818F71806281830E94C8010E94BC005A
:1005F0001C99FECFE0910401F09105018081806497
:100600008083E0910401F09105018081877C8861FD
:100610008083C9EBD2E0E0910A01F0910B0188815F
:1006200009950E9472000E94AC001E830D83DC823B
:10063000CB826F81788589859A85DF91CF911F91D3
:100640000F91FF90DF90CF900895AAE7B0E08C91D2
:1006500080688C93ECE7F0E080818F7D80838081DF
:100660008F7780838081806480838081807F808396
:100670008081876080838C91887F8C938C91876048
:100680008C930895A2E0B0E0E8E4F3E00C94AB0DA5
:10069000809178008983809179008A8389819A8109
:1006A0002296E2E00C94C70DA8E0B0E0EAE5F3E0A2
:1006B0000C94A70DFE01319688E0DF011D928A950A
:1006C000E9F70AE710E07E01B9E0EB0EF11C8D813D
:1006D0009E8198878F838B819C819E838D83898166
:1006E0009A819C838B837894F801808180648083D5
:1006F000D8018C9184FFFCCF0E9442039A838983A6
:10070000FE013196AC0121913191821793070CF4CF
:10071000C901241735070CF4A901EE15FF0599F757
:100720004A5F5F4F4817590794F22896E6E00C9409
:10073000C30DEF92FF921F93CF93DF93A895ECE741
:10074000F0E09081907F90839081892B80830E943C
:10075000540318E0E12CF12CCAE7D0E0A895988169
:1007600090649883988194FFFDCF0E944203E80E25
:10077000F91E115099F7C70196958795969587951B
:1007800096958795DF91CF911F91FF90EF900895F7
:10079000E0919901F0919A0180819181813094409A
:1007A00010F0118210820895CF92DF92EF92FF92A3
:1007B000CF93DF93E0919901F0919A019183808327
:1007C000C0919901D0919A016881798180E090E08F
:1007D0000E94680C6B017C019B01AC016DEC7CEC10
:1007E00084E890E40E94C70B9B01AC016AE979E9B7
:1007F00089E490E40E94C70B0E94390C7B836A83D2
:1008000080E090E00E94680C9B01AC01C701B6013A
:100810000E94550B20E030E048EC52E40E94C70BE8
:100820006C837D838E839F83DF91CF91FF90EF90C8
:10083000DF90CF900895CF93DF93C0919901D0912D
:100840009A012A813B81821B930BBC0180E090E0DE
:100850000E94680C2C813D814E815F810E94C70BF4
:100860000E94390C862FDF91CF910895CF92DF92AD
:10087000EF92FF92E0919901F0919A017183608368
:10088000853608F084E6682F70E080E090E00E94F2
:100890006A0C2AE037ED43E25CE30E941F0D2AE96F
:1008A00039E949E450E40E94560B6B017C01E09168
:1008B0009901F0919A0180819181BC0180E090E0E2
:1008C0000E94680C9B01AC01C701B6010E94C70BD6
:1008D0009B01AC016DEC7CEC84E890E40E94C70BBA
:1008E00020E030E040E854E40E941A0D181624F489
:1008F00080E094E00E94D403FF90EF90DF90CF90CF
:100900000895CF93DF93EC010E94C803E091990111
:10091000F0919A01808191818C179D0718F4CE0186
:100920000E94D403CE010E941B04853620F0BE0134
:1009300084E60E943604DF91CF9108955B9A089572
:100940005B980895539A0E94A00408959BB188E093
:1009500089278BB90895CF93C82F662329F1E09199
:100960009B01F0919C0180818823B9F007C0E09140
:100970009B01F0919C019081992379F0E0910E0107
:10098000F0910F010995E091BF03F091C00381E060
:1009900090819C1751F080E008C0E3E3F7E03197C5
:1009A000F1F7615021F701C080E0CF910895E09107
:1009B0009B01F0919C011082109251025A9A8FEF84
:1009C00097E40197F1F700C000005A989FEF2FE7D6
:1009D00086E1915020408040E1F700C000006FEFB9
:1009E00081E00E94AB040895CF93DF93EC01E09186
:1009F0009B01F0919C01108210925102E09116012E
:100A0000F091170182EB91E00995E0911601F091C8
:100A10001701CE010995E0911601F09117018FEAB7
:100A200091E009956FEF88E00E94AB04DF91CF91D0
:100A300008950F931F93CF93DF938C01EB01E09107
:100A40009B01F0919C01108210925102E0911601DD
:100A5000F091170182EB91E00995E0911601F09178
:100A60001701C8010995E0911401F0911501CE011B
:100A70000995E0911601F09117018FEA91E009952F
:100A80006FEF88E00E94AB04DF91CF911F910F912F
:100A90000895E0919B01F0919C0110821092510207
:100AA000E0911601F091170182EB91E00995E09138
:100AB0001601F09117018DE991E00995E091160179
:100AC000F09117018FEA91E009956FEF86E00E949F
:100AD000AB0408957894E0919501F091960180819E
:100AE000863010F081E08083E0919501F0919601CD
:100AF000A081B0E0A755BE4FE0911001F091110127
:100B00008C910995E0911201F09113010995A89536
:100B10000E94D70481112FC0E0919501F0919601B8
:100B200091E09083E0919501F0919601A081A6302B
:100B300028F5B0E0A755BE4FE0911001F0911101EA
:100B40008C910995E0911201F09113010995A895F6
:100B50000E94D704811111C0E0919501F091960196
:100B600090819F5F9083E0919501F0919601A08123
:100B7000A630F8F2089581E0089581E00895529A30
:100B80000E946A05811101C0FFCF81EA91E00E94B5
:100B9000F40485EA91E00E94F4040895399A419A98
:100BA00008953998089584B18C6284B98CE58CBD20
:100BB0008DB581608DBD08958EBD0DB407FEFDCF4E
:100BC0000895CF93C82F892F0E94DC058C2F0E9497
:100BD000DC05CF9108951EBC0DB407FEFDCF8EB588
:100BE0000895E0ECF0E0908195FFFDCF8093C60082
:100BF00008950F931F93CF93FC018081882359F0B0
:100C00008F01C0E00E94F105CF5FF801EC0FF11DEC
:100C100080818111F7CFCF911F910F9108950F938C
:100C20001F93CF93FC018081882359F08F01C0E08E
:100C30000E94F105CF5FF801EC0FF11D8081811159
:100C4000F7CFCF911F910F9108958093C40008951D
:100C500088E98093C10086E08093C200089580B740
:100C6000806880BF4CE850E060E070E083E393E090
:100C70000E94BB0E0E94BF050E9425030E944402F1
:100C8000A998EEE6F0E0808181608083B198EFE67C
:100C9000F0E0808181608083ECE6F0E08081886014
:100CA0008083809147039091480388559240893B07
:100CB0009B4038F088E592E0909348038093470387
:100CC00004C01092500210924F0287E00E949903D4
:100CD0000E9481044CE850E060E070E083E393E020
:100CE0000E94D30E80E00E94020B83E08093CD022D
:100CF00086E98093CE02E8E6F0E08081826080831E
:100D000016BC85B5856085BD8FED93EE909385000B
:100D100080938400E1E8F0E08081856080830E9418
:100D2000810AA895FCCF1F920F920FB60F92112443
:100D30002F933F934F935F936F937F938F939F93E3
:100D4000AF93BF93EF93FF938091C6009091B80249
:100D5000911102C00E94E70AFF91EF91BF91AF91FC
:100D60009F918F917F916F915F914F913F912F91C3
:100D70000F900FBE0F901F9018951F920F920FB6F5
:100D80000F9211242F933F934F935F936F937F9311
:100D90008F939F93AF93BF93EF93FF9380914F02F5
:100DA0009091500201969093500280934F022091AF
:100DB0004703309148032817390710F40E94D105E2
:100DC0008FED93EE9093850080938400FF91EF91D7
:100DD000BF91AF919F918F917F916F915F914F9153
:100DE0003F912F910F900FBE0F901F9018951F925B
:100DF0000F920FB60F9211242F933F934F935F934F
:100E00006F937F938F939F93AF93BF93EF93FF93D2
:100E100080914E028F5F80934E029091CD02891790
:100E200018F40E949E0402C00E94A00490914E02F9
:100E30008091CE02891710F410924E02FF91EF912B
:100E4000BF91AF919F918F917F916F915F914F91E2
:100E50003F912F910F900FBE0F901F901895F8940F
:100E6000A89588E18093600099E20FB6F894A89560
:100E7000809360000FBE9093600008950E94CE059D
:100E80000E942F070E94A2040E949E040E942F0627
:100E90001F920F920FB60F9211242F933F934F93EF
:100EA0005F936F937F938F939F93AF93BF93EF93D2
:100EB000FF930E94D105FF91EF91BF91AF919F9158
:100EC0008F917F916F915F914F913F912F910F90F3
:100ED0000FBE0F901F9018951F920F920FB60F9292
:100EE00011242F933F934F935F936F937F938F932F
:100EF0009F93AF93BF93EF93FF93339B62C0109286
:100F0000500210924F020E949E042FEF8FE392E056
:100F1000215080409040E1F700C0000080914C02D9
:100F200090914D02019690934D0280934C0233991B
:100F300007C00E94A00410924D0210924C0241C0C2
:100F4000A8958897D8F12FEF8FE191E0215080404C
:100F50009040E1F700C0000086EB91E00E94F404AD
:100F60002FEF8FE392E0215080409040E1F700C0E6
:100F700000000E9449055A9A2FEF8FE392E021501A
:100F800080409040E1F700C000000E94A004339927
:100F9000FECF2FEF8FE39BE0215080409040E1F7A0
:100FA00000C000000E94D1052FEF8FE39BE021508D
:100FB00080409040E1F700C0000003C00E94A604FA
:100FC000A4CFFF91EF91BF91AF919F918F917F91AE
:100FD0006F915F914F913F912F910F900FBE0F90A6
:100FE0001F90189580E0089580E00895DC01129626
:100FF0009DE0EAEBF1E001900D929A95E1F781E036
:101000000895DC0112969BE0E7ECF1E001900D926F
:101010009A95E1F781E0089562ED71E084ED91E049
:101020000E94190580E0089568ED71E08DED91E072
:101030000E94190580E0089585EA91E00E94F40479
:1010400080E0089581EE91E00E94F40483E08093B3
:10105000CD0286E48093CE0280E0089585EA91E097
:101060000E94F40483E08093CD0286E98093CE024F
:1010700080E0089502960E94F00D6093CC0280E01B
:1010800008951F93CF93DF93EC018A8181110DC0E6
:101090008AE190E00E94CB0EBE016E5F7F4F4AE076
:1010A00090E00E94380E81E016C0CE0102960E94A8
:1010B000F00D162F603170F48AE190E00E94E30E8B
:1010C000ECEBF2E01F708081807F182B10831A8276
:1010D00081E001C080E0DF91CF911F9108950F93CF
:1010E0001F93CF93DF93FC0122812223B9F0EC01FF
:1010F00087E00E9499038C01CE0102960E94D20DD6
:10110000B8010E94360448E050E06CE070E08FE3E4
:1011100093E00E94D30E1A8281E001C080E0DF914B
:10112000CF911F910F910895AC014E5F5F4F609179
:10113000490370914A0380914B0390914C032AE03C
:101140000E94430E81E00895CF93DF93EC0180E08D
:101150000E948402AE014E5F5F4F2AE00E94430E60
:1011600081E0DF91CF910895CF93DF93EC018A81E5
:1011700081111AC0AE014E5F5F4F2091470330913D
:101180004803A9E8B8E80E948C0D9695879592953A
:1011900082958F7089279F708927BC0180E090E03D
:1011A0002AE00E94430E2BC0CE0102960E94F00D51
:1011B0002CE3269FA001279F500D11245093480334
:1011C00040934703483582E0580738F488E592E0B9
:1011D000909348038093470309C041315E4030F04B
:1011E00080E19EE09093480380934703609147031A
:1011F0007091480384E190E00E94F50E1A8281E02C
:10120000DF91CF910895CF93DF93EC0187E00E94A7
:1012100099030E941B04BE016E5F7F4F4AE090E07D
:101220000E94380E81E0DF91CF9108951F93CF93F4
:10123000DF93EC0129E989E591E02150804090405D
:10124000E1F7000086EB91E00E94F404882329F185
:101250002FEF8FE392E0215080409040E1F700C0F3
:101260000000BE016E5F7F4F85EE91E00E94190580
:10127000182F2FEF8FE392E0215080409040E1F74C
:1012800000C0000081EE91E00E94F404882329F060
:1012900081E0111101C080E01A82DF91CF911F918E
:1012A0000895EF92FF920F931F93CF93DF93EC017A
:1012B0008A81882309F447C08E010E5F1F4FC80141
:1012C0000E94D20D7C018FEF8E0D853008F048C052
:1012D00029E989E591E0215080409040E1F7000044
:1012E00086EB91E00E94F4048823D9F1B80189EEDD
:1012F00091E00E941905882389F0D701BB27A755E3
:10130000BE4FE0911001F09111018C9109956E2D65
:101310008BE190E00E94E30E11E001C010E0A8957F
:101320002FEF8FEF96E8215080409040E1F700C00A
:10133000000081EE91E00E94F404811101C010E0F0
:101340001A82812F0EC08BE190E00E94CB0EBE016D
:101350006E5F7F4F4AE090E00E94380E81E001C04E
:1013600080E0CDB7DEB7E6E00C94C30DA0E0B0E0BE
:10137000ECEBF9E00C94A50DFC012281222309F489
:1013800056C0EC018C010E5F1F4FC8010E94D20DA8
:10139000BC01990F880B990B0E946A0C6B017C01B0
:1013A00020E030E04CE852EC0E94C20B88230CF4A1
:1013B00040C020E030E040E850E4C701B6010E94A0
:1013C0001A0D1816C4F1F9E929E531E0F150204071
:1013D0003040E1F7000086EB91E00E94F40488239E
:1013E00059F1B8018DEE91E00E941905182F8FEF89
:1013F0009FEFE8E081509040E040E1F700C000003E
:1014000081EE91E00E94F404882329F091E011110B
:1014100003C090E001C090E0F9E929E531E0F15026
:1014200020403040E1F700001A82892F05C080E09B
:1014300003C080E001C080E0CDB7DEB7E8E00C94E7
:10144000C10DCF93DF93EC0186E00E94C902AE018B
:101450004E5F5F4F2AE00E94430E81E0DF91CF9103
:101460000895CF93DF93EC018A81811109C044E68E
:1014700050E06CE170E0CE0102960E94BB0E09C004
:1014800044E650E06CE170E0CE0102960E94D30E7B
:101490001A8281E0DF91CF910895CF93DF93EC0121
:1014A0008A81811109C04CE050E060E870E0CE0113
:1014B00002960E94BB0E09C04CE050E060E870E06C
:1014C000CE0102960E94D30E1A8281E0DF91CF9165
:1014D0000895DC01ED91FC91808191810E94F905D4
:1014E0008FEA91E00E94F905BFEF2FE786E1B15046
:1014F00020408040E1F700C000000E94D10580E05C
:1015000008958091B802882311F1E0915202F09180
:1015100053020380F481E02D82E592E0099588234F
:1015200081F0E0915202F0915302808191810E94FA
:10153000F90584E592E00E94F9058FEA91E00E94A6
:10154000F9051092B8021092500210924F020895BD
:10155000EF92FF920F931F93CF93DF9308E111E077
:10156000C0E0D0E07E01F801608171818FEC92E0F3
:101570000E941E0E892BF1F0CE01880F991F880F53
:10158000991F8C0F9D1F9C01285E3E4F3093530284
:1015900020935202865E9E4F9093C0038093BF03B8
:1015A00062ED72E084E592E00E94170E81E0809384
:1015B000B80208C021960B5F1F4FC931D10591F6C3
:1015C0001092B802CDB7DEB7E6E00C94C30D8A30B6
:1015D00049F08D3061F4E0915102F0E0E153FD4FAC
:1015E000108208950E94A80A109251020895E09175
:1015F000510291E09E0F90935102F0E0E153FD4FB4
:1016000080830895CF92DF92EF92FF92CF93C82FFD
:10161000A8950E9484026B017C01A8958C2F0E94E2
:101620008402C60ED71EE81EF91EF694E794D794DE
:10163000C794C0924903D0924A03E0924B03F092C0
:101640004C03CF91FF90EF90DF90CF900895CF9310
:10165000DF93EC0180E00E94020B1A8281E0DF91AF
:10166000CF9108950F931F930E9484020091490324
:1016700010914A0320914B0330914C03601B710B76
:10168000820B930B1F910F910895CF93DF93EC0181
:1016900080E00E94320BAE014E5F5F4F2AE00E9455
:1016A000430E81E0DF91CF9108955058BB27AA27C0
:1016B0000E946D0B0C94E00C0E94D20C38F00E943A
:1016C000D90C20F039F49F3F19F426F40C94CF0C78
:1016D0000EF4E095E7FB0C94C90CE92F0E94F10C85
:1016E00058F3BA17620773078407950720F079F457
:1016F000A6F50C94130D0EF4E0950B2EBA2FA02D29
:101700000B01B90190010C01CA01A0011124FF27AE
:10171000591B99F0593F50F4503E68F11A16F040A9
:10172000A22F232F342F4427585FF3CF46953795A8
:101730002795A795F0405395C9F77EF41F16BA0B6D
:10174000620B730B840BBAF09150A1F0FF0FBB1F1B
:10175000661F771F881FC2F70EC0BA0F621F731F64
:10176000841F48F4879577956795B795F7959E3FC1
:1017700008F0B0CF9395880F08F09927EE0F979552
:10178000879508950E94A50C08F481E008950E94B1
:10179000DB0B0C94E00C0E94D90C58F00E94D20C88
:1017A00040F029F45F3F29F00C94C90C51110C94BE
:1017B000140D0C94CF0C0E94F10C68F39923B1F333
:1017C000552391F3951B550BBB27AA276217730767
:1017D000840738F09F5F5F4F220F331F441FAA1FFB
:1017E000A9F335D00E2E3AF0E0E832D091505040B7
:1017F000E695001CCAF72BD0FE2F29D0660F771F65
:10180000881FBB1F261737074807AB07B0E809F04A
:10181000BB0B802DBF01FF2793585F4F3AF09E3FCF
:10182000510578F00C94C90C0C94140D5F3FE4F34F
:10183000983ED4F3869577956795B795F7959F5F12
:10184000C9F7880F911D9695879597F90895E1E05E
:10185000660F771F881FBB1F621773078407BA07BD
:1018600020F0621B730B840BBA0BEE1F88F7E09518
:1018700008950E94F90C88F09F5798F0B92F992786
:10188000B751B0F0E1F0660F771F881F991F1AF06B
:10189000BA95C9F714C0B13091F00E94130DB1E0B0
:1018A00008950C94130D672F782F8827B85F39F0AF
:1018B000B93FCCF3869577956795B395D9F73EF404
:1018C00090958095709561957F4F8F4F9F4F0895AC
:1018D000E89409C097FB3EF49095809570956195CA
:1018E0007F4F8F4F9F4F9923A9F0F92F96E9BB2780
:1018F0009395F695879577956795B795F111F8CFFC
:10190000FAF4BB0F11F460FF1BC06F5F7F4F8F4F66
:101910009F4F16C0882311F096E911C0772321F05C
:101920009EE8872F762F05C0662371F096E8862FF4
:1019300070E060E02AF09A95660F771F881FDAF74B
:10194000880F9695879597F90895990F0008550F78
:10195000AA0BE0E8FEEF16161706E807F907C0F035
:1019600012161306E407F50798F0621B730B840B3D
:10197000950B39F40A2661F0232B242B252B21F417
:1019800008950A2609F4A140A6958FEF811D811DB7
:10199000089597F99F6780E870E060E008959FEFF1
:1019A00080EC089500240A941616170618060906F6
:1019B000089500240A9412161306140605060895C5
:1019C000092E0394000C11F4882352F0BB0F40F44D
:1019D000BF2B11F460FF04C06F5F7F4F8F4F9F4F8D
:1019E000089557FD9058440F551F59F05F3F71F00F
:1019F0004795880F97FB991F61F09F3F79F0879576
:101A00000895121613061406551FF2CF4695F1DFFE
:101A100008C0161617061806991FF1CF869571058E
:101A2000610508940895E894BB2766277727CB01C2
:101A300097F908950E94A50C08F48FEF08950E946D
:101A4000320D0C94E00C0E94D20C38F00E94D90C9C
:101A500020F0952311F00C94C90C0C94CF0C112498
:101A60000C94140D0E94F10C70F3959FC1F3950F27
:101A700050E0551F629FF001729FBB27F00DB11D12
:101A8000639FAA27F00DB11DAA1F649F6627B00DA2
:101A9000A11D661F829F2227B00DA11D621F739F8B
:101AA000B00DA11D621F839FA00D611D221F749F99
:101AB0003327A00D611D231F849F600D211D822FE0
:101AC000762F6A2F11249F5750409AF0F1F0882307
:101AD0004AF0EE0FFF1FBB1F661F771F881F915034
:101AE0005040A9F79E3F510580F00C94C90C0C940E
:101AF000140D5F3FE4F3983ED4F386957795679590
:101B0000B795F795E7959F5FC1F7FE2B880F911D5D
:101B10009695879597F90895A29FB001B39FC0014C
:101B2000A39F700D811D1124911DB29F700D811D09
:101B30001124911D08952F923F924F925F926F92C0
:101B40007F928F929F92AF92BF92CF92DF92EF924D
:101B5000FF920F931F93CF93DF93CDB7DEB7CA1BCE
:101B6000DB0B0FB6F894DEBF0FBECDBF09942A88F9
:101B7000398848885F846E847D848C849B84AA84A1
:101B8000B984C884DF80EE80FD800C811B81AA812E
:101B9000B981CE0FD11D0FB6F894DEBF0FBECDBFF9
:101BA000ED010895FC0188279927E89421912032BE
:101BB000E9F3293010F02E30C8F32B3241F02D32EA
:101BC00039F4689404C00E94670E820F911D219120
:101BD00020532A30C0F31EF4909581959F4F0895AD
:101BE0001F93FC0199278827BC01E89411911032BA
:101BF000E9F3193010F01E30C8F31B3251F01D32DA
:101C000049F4689406C00E94520E610F711D811D37
:101C1000911D119110531A30B0F33EF490958095B8
:101C2000709561957F4F8F4F9F4F1F910895FB01D6
:101C3000DC0101900D920020E1F70895FB01519124
:101C40005523A9F0BF01DC014D9145174111E1F782
:101C500059F4CD010190002049F04D9140154111FA
:101C6000C9F3FB014111EFCF81E090E001970895A6
:101C7000BB274A3031F4992322F4BDE29095819537
:101C80009F4F0C94920EBB272A3051F4992342F4B3
:101C9000BDE290958095709561957F4F8F4F9F4FD6
:101CA0000C94700E592F482F372F262F660F771F51
:101CB000881F991F660F771F881F991F620F731F58
:101CC000841F951F660F771F881F991F08957AE05C
:101CD000979F902D879F802D910D11240895BB27EC
:101CE000FA01A62F6217710581059105330B30FBB0
:101CF00066F0AA27660F771F881F991FAA1FA217D1
:101D000010F0A21B63953850A9F7A05DAA3308F024
:101D1000A95DA19336F7B111B1931082CA010C9459
:101D2000AB0EBB27FB015527AA27880F991FAA1FB7
:101D3000A41710F0A41B83955051B9F7A05DAA33E6
:101D400008F0A95DA193009779F7B111B1931192B1
:101D5000CB010C94AB0EDC01FC01672F7191772352
:101D6000E1F7329704C07C916D9370836291AE1756
:101D7000BF07C8F30895DC01CB01FC01F999FECF40
:101D800006C0F2BDE1BDF89A319600B40D92415003
:101D90005040B8F70895F999FECF92BD81BDF89AE9
:101DA000992780B50895DC01A40FB51F415050401C
:101DB00048F0CB01840F951F2E910E94E40E4150F4
:101DC0005040D0F70895262FF999FECF92BD81BDDE
:101DD000F89A019700B4021639F01FBA20BD0FB669
:101DE000F894FA9AF99A0FBE08950196272F0E9447
:0A1DF000E40E0C94E30EF894FFCF0C
:101DFA00BC02BE02B902EB05E105DC05D305810A86
:101E0A00250628060F06F905F10113450BF5010D04
:101E1A000309F90116210AFD0114270B010210F624
:101E2A0007050217310A09020214080D02070C08F5
:101E3A001102031C0815020522089D01062E081925
:101E4A000208F2071C02043A08200201F4072402DD
:101E5A000A410828020BB4082C020C6F0830020E43
:101E6A00160934020F510938021101083C0212A462
:101E7A00084002159408440218690A4802194D0AD2
:101E8A00ED011AB6094E034D033F03B8024453430A
:101E9A0000574B500050415200002F170B07030DFB
:101EAA000A0041542300454E44004372616E655353
:101EBA0063616C657334004D424330342E33362EE1
:101ECA0032003100534352003132333400504E5500
:101EDA0000534E44004E414D00424155004D54506E
:101EEA000044434F004742540044544D0053434F6B
:101EFA00005652530044415400525150005343512A
:101F0A000050524400434F4E004F4B005250540071
:101F1A00504F4E0046414400544F4600434254003D
:101F2A00534E41004253540048525700444348001C
:0C1F3A0047434F00504F460053524300F5
:00000001FF
